:0300000002000FEC
:10000B0012016232D2AFD2A9758901758CB1758A92
:10001B00E0D28C12005EC2A012014CC2A01200CB27
:10002B0030A0FDC2A01200E11200EB30A0FDC2A077
:10003B001200F530A0FDC2A012010B30A0FDC2A032
:10004B0012012112012B30A0FDC2A012013530A0EC
:10005B00FD80C875207D75218275229675232D75BF
:10006B00243C75252875267D75278275289675295C
:10007B002D752A3C752B28752C7D752D82752E962A
:10008B00752F3C75303C7531288520408521418585
:10009B00224285234385244485254585264685278D
:1000AB0047852848852949852A4A852B4B852C4C21
:1000BB00852D4D852E4E852F4F8530508531512204
:1000CB00752196752287752A28752B32752D967595
:1000DB002E8775277D22752323752F37752687224B
:1000EB00752078752C7375293C22752182752296A3
:1000FB00752A3C752B28752D82752E9675278222B5
:10010B007524237525327530237531327527967515
:10011B002887752A4122752091752C7D75293222ED
:10012B0075233C752F4675267D2275243C75252835
:10013B0075303C753128752782752896752A3C22B7
:10014B00227B0A7CC87DFADDFEDCFADBF622790223
:10015B007AAFDAFED9FA22C28CC0E0758CB1758AFF
:10016B00E0D28C74967590FF3159B54002C292B5AE
:10017B004102C293B54202C294B54302C295B54443
:10018B0002C296B54502C2971470DF759000749643
:10019B0075A0FF3159B54602C2A2B54702C2A3B53D
:1001AB004802C2A4B54902C2A5B54A02C2A6B54BC4
:1001BB0002C2A71470DF75A000749675B0FF315999
:1001CB00B54C02C2B2B54D02C2B3B54E02C2B4B504
:1001DB004F02C2B5B55002C2B6B55102C2B71470C8
:1001EB00DF75B000D0E0D2A078207940E7C39660ED
:1001FB000DC2A04006E714F7020209E704F708094D
:04020B00B832E922FA
:00000001FF
