:0300000002000FEC
:10000B0012039332D2AFD2A9758901758CB1758A5F
:10001B00E0D28C1202651202B4C2A07F017E0012E4
:10002B00037D7B07120043DBFB1202651201E280AA
:10003B00FE7B0412017EDBFB12031B120322120355
:10004B002912033012033712033E1202EB1202F194
:10005B0012030612030D1203751202EB1203611247
:10006B000371120365120345120351120355120259
:10007B00EB12031B1203301203371203291202EB8C
:10008B001202F81202FF1203141203791202EB127E
:10009B00035D12036912036D120349120359120314
:1000AB004D1202EB12032212032912033E1202EB32
:1000BB00221202F112030612030D1203751202EB48
:1000CB0012034912035912034D12035D12036912F5
:1000DB00036D1202EB12031B1203301203371203D0
:1000EB00291202EB1202F81202FF12031412037907
:1000FB001202EB1203451203511203551203611244
:10010B0003711203651202EB12032212032912036D
:10011B003E1203301202EB221203221203291203A6
:10012B003E1202EB1202F112030612030D1202EB46
:10013B0012035D12036112034D12035112036D1270
:10014B0003711202EB12031B12033012033712025C
:10015B00EB1202F81202FF1203141202EB12034508
:10016B001203491203651203691203551203591244
:10017B0002EB2212031B1203221203291203301269
:10018B00033712033E1202EB1202F11203061203A3
:10019B000D1202EB12034512034912036512036998
:1001AB001203551203591202EB12031B12033012E6
:1001BB0003371202EB1202F81202FF12031412029F
:1001CB00EB12035D12036112034D12035112036D07
:1001DB001203711202EB2212030D1203061202EB31
:1001EB00752C827529551202EB120337120330124C
:1001FB0002EB1203141202FF1202EB1203717526AB
:10020B006E1202EB12033E1203291202EB1202F1E1
:10021B001202F8752D91752E9675302D7531287546
:10022B00276E752878752A50752B461202EB7520B0
:10023B005775217875223C75236475244175257893
:10024B001202EB7F0475225A7525781202EB752288
:10025B003C75255A1202EB80EA22120278120282B6
:10026B0012028C1202961202A01202AA2275207D93
:10027B007521827522962275232D75243C752528B0
:10028B002275267D7527827528962275292D752A4C
:10029B003C752B2822752C7D752D82752E9622751B
:1002AB002F3C75303C7531282285204085214185B6
:1002BB00224285234385244485254585264685276B
:1002CB0047852848852949852A4A852B4B852C4CFF
:1002DB00852D4D852E4E852F4F85305085315122E2
:1002EB00C2A030A0FD22752196752287227524238A
:1002FB007525322275279675288722752A28752B26
:10030B003222752D96752E87227530237531322248
:10031B007521827522962275243C75252822752716
:10032B008275289622752A3C752B2822752D82758D
:10033B002E962275303C7531282275207822752334
:10034B003C2275267D2275293C22752C7322752F34
:10035B004622752091227523232275268722752923
:10036B003222752C7D22752F372275277D22752A17
:10037B0041227B0A7CC87DFADDFEDCFADBF62279B2
:10038B00027AAFDAFED9FA22C28CC0E0758CB17555
:10039B008AE0D28C74967590FF718AB54002C29236
:1003AB00B54102C293B54202C294B54302C295B5A0
:1003BB004402C296B54502C2971470DF7590007463
:1003CB009675A0FF718AB54602C2A2B54702C2A3B9
:1003DB00B54802C2A4B54902C2A5B54A02C2A6B528
:1003EB004B02C2A71470DF75A000749675B0FF7135
:0E03FB008AB54C02C2B2B54D02C2B3B54E0275
:10040900C2B4B54F02C2B5B55002C2B6B55102C2A7
:10041900B71470DF75B000D2A0C00712042EDFFB3D
:10042900D007D0E02278207940E7C396600DC2A0BA
:100439004006E714F7020444E704F70809B832E96B
:010449002290
:00000001FF
