:0300000002000FEC
:10000B001204D832D2AFD2A9758901758CB1758A19
:10001B00E07580001204B3D28C12038E1203DDC282
:10002B00A07F011204A67B0512007ADBFB7B10126A
:10003B0001EEDBFB12038E1204147B05120108DBAD
:10004B00FB7B10120181DBFB1202F67B0A120351C0
:10005B00DBFB12038E1204141202647B0A1202DD04
:10006B00DBFBEF2401FFC2AF1204A6D2AF80B412A8
:10007B00044412044B120452120459120460120469
:10008B00671204BA12041412041A12042F12043643
:10009B0012049E1204B312041412048A12049A124C
:1000AB00048E12046E12047A12047E1204C112041E
:1000BB00141204441204591204601204521204C89C
:1000CB0012041412042112042812043D1204A21269
:1000DB0004BA120414120486120492120496120427
:1000EB00721204821204761204B312041412044B1B
:1000FB001204521204671204C11204142212041ABD
:10010B0012042F12043612049E1204BA1204141293
:10011B0004721204821204761204861204921204E0
:10012B00961204B3120414120444120459120460FC
:10013B001204521204C112041412042112042812C4
:10014B00043D1204A21204C812041412046E120409
:10015B007A12047E12048A12049A12048E1204BAC2
:10016B0012041412044B1204521204671204591293
:10017B0004B31204142212044B1204521204671219
:10018B0004BA12041412041A12042F1204361204A5
:10019B00B312041412048612048A12047612047A1F
:1001AB0012049612049A1204C1120414120444127B
:1001BB0004591204601204C812041412042112040C
:1001CB002812043D1204BA12041412046E120472A3
:1001DB0012048E12049212047E1204821204B312C1
:1001EB0004142212044412044B1204521204591226
:1001FB0004601204671204C112041412041A1204CC
:10020B002F1204361204C812041412046E12047254
:10021B0012048E12049212047E1204821204BA1279
:10022B0004141204441204591204601204B312048D
:10023B001412042112042812043D1204C1120414D6
:10024B0012048612048A12047612047A120496128D
:10025B00049A1204C81204142212043612042F1228
:10026B000414752C8275295512041412046012049F
:10027B00591204C112041412043D1204281204145E
:10028B0012049A75266E1204141204671204521289
:10029B0004BA12041412041A120421752D91752E2E
:1002AB009675302D75312875276E752878752A50FF
:1002BB00752B461204C112041475205775217875DD
:1002CB00223C7523647524417525781204BA1204F7
:1002DB00142275225A7525781204B3120414752250
:1002EB003C75255A1204C11204142212038E1204F7
:1002FB00141204A61204BA12041412041A12043DA6
:10030B001204C112041412046E12049A752F3C12BB
:10031B0004B31204141204441204671204BA120434
:10032B00141204211204361204C112041475234151
:10033B001204961204B312041412044B120460122A
:10034B0004BA12041422752D91752E9475302D75E7
:10035B00312175216E75227D75245075254112044E
:10036B00C112041475219175229175242D752523C5
:10037B00752D6E752E827530507531391204B3128E
:10038B000414221203A11203AB1203B51203BF1202
:10039B0003C91203D32275207D7521827522962203
:1003AB0075232D75243C7525282275267F7527828C
:1003BB007528962275293F752A3C752B2822752C9A
:1003CB007D752D82752E9622752F3C75303C7531BF
:1003DB00282285204085214185224285234385247F
:1003EB0044852545852646852747852848852949FF
:0F03FB00852A4A852B4B852C4C852D4D852E4E02
:10040A00852F4F85305085315122C2A030A0FD2260
:10041A007521967522872275242375253222752720
:10042A009675288722752A28752B3222752D96757E
:10043A002E872275302375313222752182752296D4
:10044A002275243C752528227527827528962275DF
:10045A002A3C752B2822752D82752E962275303CE2
:10046A00753128227520782275233C2275267D2233
:10047A0075293C22752C7322752F462275209122EC
:10048A00752323227526872275293222752C7D220F
:10049A00752F372275277D22752A41227B0A7CC84F
:1004AA007DFADDFEDCFADBF622D2B0D2B1C29022AE
:1004BA00D2B0C2B1D29022C2B0D2B1D29022C2B0CE
:1004CA00C2B1C2902279027AAFDAFED9FA22C28C7C
:1004DA00C0E0758CB1758AE0D28C74964390FC9119
:1004EA00CFB54002C292B54102C293B54202C2944C
:1004FA00B54302C295B54402C296B54502C29714E5
:10050A0070DF539003749643A0FC91CFB54602C2A4
:10051A00A2B54702C2A3B54802C2A4B54902C2A500
:10052A00B54A02C2A6B54B02C2A71470DF53A00394
:10053A00749643B0FC91CFB54C02C2B2B54D02C21B
:10054A00B3B54E02C2B4B54F02C2B5B55002C2B677
:10055A00B55102C2B71470DF53B003D2A0C007125C
:10056A000573DFFBD007D0E02278207940E7C396F5
:10057A00600DC2A04006E714F7020589E704F708F0
:05058A0009B832E9226E
:00000001FF
